{
  "contractName": "Hyper",
  "abi": [
    {
      "inputs": [
        {
          "internalType": "address",
          "name": "ownerAddress",
          "type": "address"
        }
      ],
      "payable": false,
      "stateMutability": "nonpayable",
      "type": "constructor",
      "signature": "constructor"
    },
    {
      "anonymous": false,
      "inputs": [
        {
          "indexed": true,
          "internalType": "address",
          "name": "oldaddress",
          "type": "address"
        },
        {
          "indexed": true,
          "internalType": "address",
          "name": "newaddress",
          "type": "address"
        },
        {
          "indexed": false,
          "internalType": "uint256",
          "name": "userId",
          "type": "uint256"
        }
      ],
      "name": "BeneficieryChanged",
      "type": "event",
      "signature": "0x64bd7ff988e154b1d3ea93667276c10bcd8b76f4abb20efc84cfe8cf1664b4e8"
    },
    {
      "anonymous": false,
      "inputs": [
        {
          "indexed": true,
          "internalType": "address",
          "name": "receiver",
          "type": "address"
        },
        {
          "indexed": true,
          "internalType": "address",
          "name": "from",
          "type": "address"
        },
        {
          "indexed": false,
          "internalType": "uint256",
          "name": "id",
          "type": "uint256"
        },
        {
          "indexed": false,
          "internalType": "uint8",
          "name": "matrix",
          "type": "uint8"
        },
        {
          "indexed": false,
          "internalType": "uint8",
          "name": "level",
          "type": "uint8"
        },
        {
          "indexed": false,
          "internalType": "uint256",
          "name": "count",
          "type": "uint256"
        }
      ],
      "name": "MissedEthReceive",
      "type": "event",
      "signature": "0xcbbfd31449e5c534f06124609d7d5fff197c5121cd43131b7dfe34c0bc3abf4a"
    },
    {
      "anonymous": false,
      "inputs": [
        {
          "indexed": true,
          "internalType": "address",
          "name": "user",
          "type": "address"
        },
        {
          "indexed": true,
          "internalType": "address",
          "name": "referrer",
          "type": "address"
        },
        {
          "indexed": false,
          "internalType": "uint256",
          "name": "id",
          "type": "uint256"
        },
        {
          "indexed": false,
          "internalType": "uint8",
          "name": "matrix",
          "type": "uint8"
        },
        {
          "indexed": false,
          "internalType": "uint8",
          "name": "level",
          "type": "uint8"
        },
        {
          "indexed": false,
          "internalType": "uint8",
          "name": "place",
          "type": "uint8"
        },
        {
          "indexed": false,
          "internalType": "uint256",
          "name": "count",
          "type": "uint256"
        },
        {
          "indexed": false,
          "internalType": "bool",
          "name": "ispartner",
          "type": "bool"
        }
      ],
      "name": "NewUserPlace",
      "type": "event",
      "signature": "0x7343e727fe828c889494fe3b69832073f3ed0f4083206c461895f7ca4ef0b635"
    },
    {
      "anonymous": false,
      "inputs": [
        {
          "indexed": true,
          "internalType": "address",
          "name": "user",
          "type": "address"
        },
        {
          "indexed": true,
          "internalType": "address",
          "name": "referrer",
          "type": "address"
        },
        {
          "indexed": true,
          "internalType": "uint256",
          "name": "userId",
          "type": "uint256"
        },
        {
          "indexed": false,
          "internalType": "uint256",
          "name": "referrerId",
          "type": "uint256"
        }
      ],
      "name": "Registration",
      "type": "event",
      "signature": "0x309bb360e8b69c23937ccc5fb01f9aeeead1c95a99604e175113ff82f2b1723a"
    },
    {
      "anonymous": false,
      "inputs": [
        {
          "indexed": true,
          "internalType": "address",
          "name": "user",
          "type": "address"
        },
        {
          "indexed": true,
          "internalType": "address",
          "name": "currentReferrer",
          "type": "address"
        },
        {
          "indexed": true,
          "internalType": "address",
          "name": "caller",
          "type": "address"
        },
        {
          "indexed": false,
          "internalType": "uint8",
          "name": "matrix",
          "type": "uint8"
        },
        {
          "indexed": false,
          "internalType": "uint8",
          "name": "level",
          "type": "uint8"
        },
        {
          "indexed": false,
          "internalType": "uint256",
          "name": "count",
          "type": "uint256"
        }
      ],
      "name": "Reinvest",
      "type": "event",
      "signature": "0x89d77060363679686caa7325287f285edfa1d7b0aaf057e4cf4933d2e976864c"
    },
    {
      "anonymous": false,
      "inputs": [
        {
          "indexed": true,
          "internalType": "address",
          "name": "from",
          "type": "address"
        },
        {
          "indexed": true,
          "internalType": "address",
          "name": "receiver",
          "type": "address"
        },
        {
          "indexed": false,
          "internalType": "uint256",
          "name": "id",
          "type": "uint256"
        },
        {
          "indexed": false,
          "internalType": "uint8",
          "name": "matrix",
          "type": "uint8"
        },
        {
          "indexed": false,
          "internalType": "uint8",
          "name": "level",
          "type": "uint8"
        },
        {
          "indexed": false,
          "internalType": "uint256",
          "name": "count",
          "type": "uint256"
        }
      ],
      "name": "SentExtraEthDividends",
      "type": "event",
      "signature": "0xb7319e48c21d46cc52a3dfbe5ec6744cbe7f0d9243acc0ddffed47b1dcd49e67"
    },
    {
      "anonymous": false,
      "inputs": [
        {
          "indexed": true,
          "internalType": "address",
          "name": "user",
          "type": "address"
        },
        {
          "indexed": true,
          "internalType": "address",
          "name": "referrer",
          "type": "address"
        },
        {
          "indexed": false,
          "internalType": "uint8",
          "name": "matrix",
          "type": "uint8"
        },
        {
          "indexed": false,
          "internalType": "uint8",
          "name": "level",
          "type": "uint8"
        }
      ],
      "name": "Upgrade",
      "type": "event",
      "signature": "0x18a92df19fd94d6cfff209966673a5ca05a1c8e2bb68e097fce2bdc2ed811119"
    },
    {
      "payable": true,
      "stateMutability": "payable",
      "type": "fallback"
    },
    {
      "constant": true,
      "inputs": [],
      "name": "LAST_LEVEL",
      "outputs": [
        {
          "internalType": "uint8",
          "name": "",
          "type": "uint8"
        }
      ],
      "payable": false,
      "stateMutability": "view",
      "type": "function",
      "signature": "0x29c70400"
    },
    {
      "constant": true,
      "inputs": [
        {
          "internalType": "address",
          "name": "",
          "type": "address"
        }
      ],
      "name": "balances",
      "outputs": [
        {
          "internalType": "uint256",
          "name": "",
          "type": "uint256"
        }
      ],
      "payable": false,
      "stateMutability": "view",
      "type": "function",
      "signature": "0x27e235e3"
    },
    {
      "constant": true,
      "inputs": [
        {
          "internalType": "uint256",
          "name": "",
          "type": "uint256"
        }
      ],
      "name": "idToAddress",
      "outputs": [
        {
          "internalType": "address",
          "name": "",
          "type": "address"
        }
      ],
      "payable": false,
      "stateMutability": "view",
      "type": "function",
      "signature": "0x2a2d0c47"
    },
    {
      "constant": true,
      "inputs": [],
      "name": "lastUserId",
      "outputs": [
        {
          "internalType": "uint256",
          "name": "",
          "type": "uint256"
        }
      ],
      "payable": false,
      "stateMutability": "view",
      "type": "function",
      "signature": "0x348d4487"
    },
    {
      "constant": true,
      "inputs": [
        {
          "internalType": "uint8",
          "name": "",
          "type": "uint8"
        }
      ],
      "name": "levelPrice",
      "outputs": [
        {
          "internalType": "uint256",
          "name": "",
          "type": "uint256"
        }
      ],
      "payable": false,
      "stateMutability": "view",
      "type": "function",
      "signature": "0xecabdf79"
    },
    {
      "constant": true,
      "inputs": [],
      "name": "owner",
      "outputs": [
        {
          "internalType": "address",
          "name": "",
          "type": "address"
        }
      ],
      "payable": false,
      "stateMutability": "view",
      "type": "function",
      "signature": "0x8da5cb5b"
    },
    {
      "constant": true,
      "inputs": [
        {
          "internalType": "address",
          "name": "",
          "type": "address"
        }
      ],
      "name": "users",
      "outputs": [
        {
          "internalType": "uint256",
          "name": "id",
          "type": "uint256"
        },
        {
          "internalType": "address",
          "name": "referrer",
          "type": "address"
        },
        {
          "internalType": "uint256",
          "name": "partnersCount",
          "type": "uint256"
        },
        {
          "internalType": "address",
          "name": "beneficiery",
          "type": "address"
        }
      ],
      "payable": false,
      "stateMutability": "view",
      "type": "function",
      "signature": "0xa87430ba"
    },
    {
      "constant": false,
      "inputs": [
        {
          "internalType": "address",
          "name": "referrerAddress",
          "type": "address"
        },
        {
          "internalType": "address payable",
          "name": "_tds_addr",
          "type": "address"
        },
        {
          "internalType": "uint256",
          "name": "_amount",
          "type": "uint256"
        }
      ],
      "name": "registrationExt",
      "outputs": [],
      "payable": true,
      "stateMutability": "payable",
      "type": "function",
      "signature": "0x20685fc9"
    },
    {
      "constant": false,
      "inputs": [
        {
          "internalType": "uint8",
          "name": "matrix",
          "type": "uint8"
        },
        {
          "internalType": "uint8",
          "name": "level",
          "type": "uint8"
        },
        {
          "internalType": "address payable",
          "name": "_tds_addr",
          "type": "address"
        },
        {
          "internalType": "uint256",
          "name": "_amount",
          "type": "uint256"
        }
      ],
      "name": "buyNewLevel",
      "outputs": [],
      "payable": true,
      "stateMutability": "payable",
      "type": "function",
      "signature": "0xac80ef29"
    },
    {
      "constant": true,
      "inputs": [
        {
          "internalType": "address",
          "name": "userAddress",
          "type": "address"
        },
        {
          "internalType": "uint8",
          "name": "level",
          "type": "uint8"
        }
      ],
      "name": "findFreeX3Referrer",
      "outputs": [
        {
          "internalType": "address",
          "name": "",
          "type": "address"
        }
      ],
      "payable": false,
      "stateMutability": "view",
      "type": "function",
      "signature": "0xfa45323d"
    },
    {
      "constant": true,
      "inputs": [
        {
          "internalType": "address",
          "name": "userAddress",
          "type": "address"
        },
        {
          "internalType": "uint8",
          "name": "level",
          "type": "uint8"
        }
      ],
      "name": "findFreeX6Referrer",
      "outputs": [
        {
          "internalType": "address",
          "name": "",
          "type": "address"
        }
      ],
      "payable": false,
      "stateMutability": "view",
      "type": "function",
      "signature": "0xe06e8dbd"
    },
    {
      "constant": true,
      "inputs": [
        {
          "internalType": "address",
          "name": "userAddress",
          "type": "address"
        },
        {
          "internalType": "uint8",
          "name": "level",
          "type": "uint8"
        }
      ],
      "name": "usersActiveX3Levels",
      "outputs": [
        {
          "internalType": "bool",
          "name": "",
          "type": "bool"
        }
      ],
      "payable": false,
      "stateMutability": "view",
      "type": "function",
      "signature": "0x07279e2a"
    },
    {
      "constant": true,
      "inputs": [
        {
          "internalType": "address",
          "name": "userAddress",
          "type": "address"
        },
        {
          "internalType": "uint8",
          "name": "level",
          "type": "uint8"
        }
      ],
      "name": "usersActiveX6Levels",
      "outputs": [
        {
          "internalType": "bool",
          "name": "",
          "type": "bool"
        }
      ],
      "payable": false,
      "stateMutability": "view",
      "type": "function",
      "signature": "0xb2f7543a"
    },
    {
      "constant": true,
      "inputs": [
        {
          "internalType": "address",
          "name": "userAddress",
          "type": "address"
        },
        {
          "internalType": "uint8",
          "name": "level",
          "type": "uint8"
        }
      ],
      "name": "usersX3Matrix",
      "outputs": [
        {
          "internalType": "address",
          "name": "",
          "type": "address"
        },
        {
          "internalType": "address[]",
          "name": "",
          "type": "address[]"
        },
        {
          "internalType": "bool",
          "name": "",
          "type": "bool"
        }
      ],
      "payable": false,
      "stateMutability": "view",
      "type": "function",
      "signature": "0x83ba31b2"
    },
    {
      "constant": true,
      "inputs": [
        {
          "internalType": "address",
          "name": "userAddress",
          "type": "address"
        },
        {
          "internalType": "uint8",
          "name": "level",
          "type": "uint8"
        }
      ],
      "name": "usersX6Matrix",
      "outputs": [
        {
          "internalType": "address",
          "name": "",
          "type": "address"
        },
        {
          "internalType": "address[]",
          "name": "",
          "type": "address[]"
        },
        {
          "internalType": "address[]",
          "name": "",
          "type": "address[]"
        },
        {
          "internalType": "bool",
          "name": "",
          "type": "bool"
        },
        {
          "internalType": "address",
          "name": "",
          "type": "address"
        }
      ],
      "payable": false,
      "stateMutability": "view",
      "type": "function",
      "signature": "0x9cc102fc"
    },
    {
      "constant": true,
      "inputs": [
        {
          "internalType": "address",
          "name": "user",
          "type": "address"
        }
      ],
      "name": "isUserExists",
      "outputs": [
        {
          "internalType": "bool",
          "name": "",
          "type": "bool"
        }
      ],
      "payable": false,
      "stateMutability": "view",
      "type": "function",
      "signature": "0x509222cd"
    },
    {
      "constant": false,
      "inputs": [
        {
          "internalType": "address",
          "name": "newBeneficiery",
          "type": "address"
        }
      ],
      "name": "changeBeneficiery",
      "outputs": [],
      "payable": false,
      "stateMutability": "nonpayable",
      "type": "function",
      "signature": "0xa50db720"
    }
  ],
  "bytecode": "0x608060405260026003553480156200001657600080fd5b506040516200392138038062003921833981810160405260208110156200003c57600080fd5b505160056020526658d15e176280007f1471eb6eb2c5e789fc3de43f8ce62938c7d1836ec861730447e2ada8fd81017b5566b1a2bc2ec500007f89832631fb3c3307a103ba2c84ab569c64d6182a18893dcd163f0f1c2090733a5567010a741a462780007fa9bc9a3a348c357ba16b37005d7e6b3236198c0e939f4af8c5f19b8deeb8ebc05567016345785d8a00007f3eec716f11ba9e820c81ca75eb978ffb45831ef8b7a53e5e422c26008e1ca6d5556706f05b59d3b200007f458b30c2d72bfd2c6317304a4594ecbafe5f729d3111b65fdc3a33bd48e5432d55670de0b6b3a76400007f069400f22b28c6c362558d92f66163cec5671cba50b61abd2eecfcd0eaeac518556714d1120d7b1600007feddb6698d7c569ff62ff64f1f1492bf14a54594835ba0faac91f84b4f5d8146055671bc16d674ec800007ffb33122aa9f93cc639ebe80a7bc4784c11e6053dde89c6f4f7e268c6a623da1e556722b1c8c1227a00007fc0a4a8be475dfebc377ebef2d7c4ff47656f572a08dd92b81017efcdba0febe155600a6000526729a2241af62c00007fa18b128af1c8fc61ff46f02d146e54546f34d340574cf2cef6a753cba6b6701d5560048054600160a060020a031916600160a060020a038316179055620002196200032b565b5060408051608081018252600180825260006020808401828152848601838152600160a060020a03888116606088018181528187528686529886208851815593518488018054918416600160a060020a0319928316179055925160028501559751600390930180549390911692821692909217909155918390528290527fcc69885fda6bcc1a4ace058b4a62bf5e179ea78fd58a1ccd71c22cc9b688792f8054909116909317909255905b600a60ff8216116200032257600160a060020a03831660009081526020818152604080832060ff851684526004810183528184208054600160ff199182168117909255600590920190935292208054909216811790915501620002c4565b50505062000365565b6040518060800160405280600081526020016000600160a060020a03168152602001600081526020016000600160a060020a031681525090565b6135ac80620003756000396000f3fe60806040526004361061011b576000357c0100000000000000000000000000000000000000000000000000000000900480638da5cb5b116100b2578063ac80ef2911610081578063ac80ef2914610593578063b2f7543a146105d2578063e06e8dbd1461060e578063ecabdf791461064a578063fa45323d146106775761011b565b80638da5cb5b146103ee5780639cc102fc14610403578063a50db720146104fc578063a87430ba1461052f5761011b565b80632a2d0c47116100ee5780632a2d0c47146102b7578063348d4487146102fd578063509222cd1461031257806383ba31b2146103455761011b565b806307279e2a146101c157806320685fc91461021157806327e235e31461024757806329c704001461028c575b3661015957600454610154903390600160a060020a031673dd870fa1b7c4700f2bd7f44238821c26f7392148662386f26fc100006106b3565b6101bf565b6101bf3361019d6000368080601f0160208091040260200160405190810160405280939291908181526020018383808284376000920191909152506109ec92505050565b73dd870fa1b7c4700f2bd7f44238821c26f7392148662386f26fc100006106b3565b005b3480156101cd57600080fd5b506101fd600480360360408110156101e457600080fd5b508035600160a060020a0316906020013560ff166109f3565b604080519115158252519081900360200190f35b6101bf6004803603606081101561022757600080fd5b50600160a060020a03813581169160208101359091169060400135610a27565b34801561025357600080fd5b5061027a6004803603602081101561026a57600080fd5b5035600160a060020a0316610a38565b60408051918252519081900360200190f35b34801561029857600080fd5b506102a1610a4a565b6040805160ff9092168252519081900360200190f35b3480156102c357600080fd5b506102e1600480360360208110156102da57600080fd5b5035610a4f565b60408051600160a060020a039092168252519081900360200190f35b34801561030957600080fd5b5061027a610a6a565b34801561031e57600080fd5b506101fd6004803603602081101561033557600080fd5b5035600160a060020a0316610a70565b34801561035157600080fd5b506103816004803603604081101561036857600080fd5b508035600160a060020a0316906020013560ff16610a8d565b60408051600160a060020a0385168152821515918101919091526060602080830182815285519284019290925284516080840191868101910280838360005b838110156103d85781810151838201526020016103c0565b5050505090500194505050505060405180910390f35b3480156103fa57600080fd5b506102e1610b3a565b34801561040f57600080fd5b5061043f6004803603604081101561042657600080fd5b508035600160a060020a0316906020013560ff16610b49565b60408051600160a060020a03808816825284151560608301528316608082015260a060208083018281528851928401929092528751929391929184019160c0850191898101910280838360005b838110156104a457818101518382015260200161048c565b50505050905001838103825286818151815260200191508051906020019060200280838360005b838110156104e35781810151838201526020016104cb565b5050505090500197505050505050505060405180910390f35b34801561050857600080fd5b506101bf6004803603602081101561051f57600080fd5b5035600160a060020a0316610c68565b34801561053b57600080fd5b506105626004803603602081101561055257600080fd5b5035600160a060020a0316610d4d565b60408051948552600160a060020a039384166020860152848101929092529091166060830152519081900360800190f35b6101bf600480360360808110156105a957600080fd5b5060ff8135811691602081013590911690600160a060020a036040820135169060600135610d81565b3480156105de57600080fd5b506101fd600480360360408110156105f557600080fd5b508035600160a060020a0316906020013560ff1661120f565b34801561061a57600080fd5b506102e16004803603604081101561063157600080fd5b508035600160a060020a0316906020013560ff1661123e565b34801561065657600080fd5b5061027a6004803603602081101561066d57600080fd5b503560ff166112ca565b34801561068357600080fd5b506102e16004803603604081101561069a57600080fd5b508035600160a060020a0316906020013560ff166112dc565b3466b1a2bc2ec5000014610711576040805160e560020a62461bcd02815260206004820152601660248201527f726567697374726174696f6e20636f737420302e303500000000000000000000604482015290519081900360640190fd5b61071a84610a70565b1561076f576040805160e560020a62461bcd02815260206004820152600b60248201527f7573657220657869737473000000000000000000000000000000000000000000604482015290519081900360640190fd5b61077883610a70565b6107cc576040805160e560020a62461bcd02815260206004820152601360248201527f7265666572726572206e6f742065786973747300000000000000000000000000604482015290519081900360640190fd5b833b63ffffffff81161561082a576040805160e560020a62461bcd02815260206004820152601460248201527f63616e6e6f74206265206120636f6e7472616374000000000000000000000000604482015290519081900360640190fd5b61083261344e565b5060408051608081018252600380548252600160a060020a03878116602080850182815260008688018181528d8616606089018181528184528386528a84208a518155945160018087018054928b16600160a060020a031993841617815594516002808901919091559251878c01805491909b1690831617909955895485528887528b85208054821690931790925582549091168617909155858252600483018452888220805460ff199081168817909155600590930184528882208054909316861790925585548501909555918452839052938220909301805484019055909161091e9088906112dc565b600160a060020a03888116600090815260208181526040808320600180855260069091019092529091208054600160a060020a0319169284169290921790915590915061097090889083908888611368565b6109888761097f89600161123e565b60018888611797565b600160a060020a0380881660008181526020818152604080832054948b168084529281902054815190815290519293927f309bb360e8b69c23937ccc5fb01f9aeeead1c95a99604e175113ff82f2b1723a929181900390910190a450505050505050565b6014015190565b600160a060020a03821660009081526020818152604080832060ff8086168552600490910190925290912054165b92915050565b610a33338484846106b3565b505050565b60026020526000908152604090205481565b600a81565b600160205260009081526040902054600160a060020a031681565b60035481565b600160a060020a0316600090815260208190526040902054151590565b600160a060020a0382811660009081526020818152604080832060ff8681168552600690910183528184208054600282015460019092018054855181880281018801909652808652969760609789979390911695919493909316929091849190830182828015610b2657602002820191906000526020600020905b8154600160a060020a03168152600190910190602001808311610b08575b505050505091509250925092509250925092565b600454600160a060020a031681565b600160a060020a0382811660009081526020818152604080832060ff8681168552600790910183528184208054600382015460058301546001840180548751818a0281018a0190985280885298996060998a998c998a99978416989497600290950196909416949092169291869190830182828015610bf157602002820191906000526020600020905b8154600160a060020a03168152600190910190602001808311610bd3575b5050505050935082805480602002602001604051908101604052809291908181526020018280548015610c4d57602002820191906000526020600020905b8154600160a060020a03168152600190910190602001808311610c2f575b50505050509250945094509450945094509295509295909350565b610c7133610a70565b610cc5576040805160e560020a62461bcd02815260206004820152601260248201527f7573657220646f65736e27742065786973740000000000000000000000000000604482015290519081900360640190fd5b33600090815260208181526040918290206003810154905483519081529251600160a060020a03808616949216927f64bd7ff988e154b1d3ea93667276c10bcd8b76f4abb20efc84cfe8cf1664b4e8928290030190a33360009081526020819052604090206003018054600160a060020a031916600160a060020a0392909216919091179055565b60006020819052908152604090208054600182015460028301546003909301549192600160a060020a039182169290911684565b610d8a33610a70565b610dc85760405160e560020a62461bcd0281526004018080602001828103825260238152602001806135356023913960400191505060405180910390fd5b8360ff1660011480610ddd57508360ff166002145b610e31576040805160e560020a62461bcd02815260206004820152600e60248201527f696e76616c6964206d6174726978000000000000000000000000000000000000604482015290519081900360640190fd5b60ff83166000908152600560205260409020543414610e9a576040805160e560020a62461bcd02815260206004820152600d60248201527f696e76616c696420707269636500000000000000000000000000000000000000604482015290519081900360640190fd5b60018360ff16118015610eb15750600a60ff841611155b610f05576040805160e560020a62461bcd02815260206004820152600d60248201527f696e76616c6964206c6576656c00000000000000000000000000000000000000604482015290519081900360640190fd5b8360ff16600114156110a0573360009081526020818152604080832060ff80881685526004909101909252909120541615610f8a576040805160e560020a62461bcd02815260206004820152601760248201527f6c6576656c20616c726561647920616374697661746564000000000000000000604482015290519081900360640190fd5b3360009081526020818152604080832060ff6000198801811685526006909101909252909120600201541615610fe8573360009081526020818152604080832060ff60001988011684526006019091529020600201805460ff191690555b6000610ff433856112dc565b3360008181526020818152604080832060ff8a1684526006810183528184208054600160a060020a031916600160a060020a0388161790556004019091529020805460ff1916600117905590915061104f9082868686611368565b604080516001815260ff861660208201528151600160a060020a0384169233927f18a92df19fd94d6cfff209966673a5ca05a1c8e2bb68e097fce2bdc2ed811119929081900390910190a350611209565b3360009081526020818152604080832060ff80881685526005909101909252909120541615611119576040805160e560020a62461bcd02815260206004820152601760248201527f6c6576656c20616c726561647920616374697661746564000000000000000000604482015290519081900360640190fd5b3360009081526020818152604080832060ff6000198801811685526007909101909252909120600301541615611177573360009081526020818152604080832060ff60001988011684526007019091529020600301805460ff191690555b6000611183338561123e565b3360008181526020818152604080832060ff8a1684526005019091529020805460ff191660011790559091506111bc9082868686611797565b604080516002815260ff861660208201528151600160a060020a0384169233927f18a92df19fd94d6cfff209966673a5ca05a1c8e2bb68e097fce2bdc2ed811119929081900390910190a3505b50505050565b600160a060020a039190911660009081526020818152604080832060ff94851684526005019091529020541690565b60005b600160a060020a0380841660009081526020818152604080832060010154909316825282822060ff808716845260059091019091529190205416156112a45750600160a060020a0380831660009081526020819052604090206001015416610a21565b600160a060020a0392831660009081526020819052604090206001015490921691611241565b60056020526000908152604090205481565b60005b600160a060020a0380841660009081526020818152604080832060010154909316825282822060ff808716845260049091019091529190205416156113425750600160a060020a0380831660009081526020819052604090206001015416610a21565b600160a060020a03928316600090815260208190526040902060010154909216916112df565b600160a060020a0384811660009081526020818152604080832060ff881680855260069091018352908320600190810180549182018155808552928420018054600160a060020a031916948a1694909417909355919052546003111561147657600160a060020a038581166000818152602081815260408083205494891680845281842060ff8a168552600601909252909120600180820154600390920154929460008051602061355883398151915293909289916114278d8d6122b8565b6040805196875260ff958616602088015293851686850152919093166060850152608084019290925290151560a0830152519081900360c00190a3611471848660018686866122dd565b611790565b600160a060020a038581166000818152602081815260408083205494891680845281842060ff8a16855260060190925290912060039081015491936000805160206135588339815191529290916001918991906114d38d8d6122b8565b6040805196875260ff958616602088015293851686850152919093166060850152608084019290925290151560a0830152519081900360c00190a36040805160008082526020808301808552600160a060020a038916835282825284832060ff8916845260060190915292902090516115529260019092019190613488565b50600160a060020a03841660009081526020818152604080832060ff600188018116855260049091019092529091205416158015611594575060ff8316600a14155b156115cf57600160a060020a03841660009081526020818152604080832060ff871684526006019091529020600201805460ff191660011790555b600454600160a060020a038581169116146116ea5760006115f085856112dc565b600160a060020a0386811660009081526020818152604080832060ff8a16845260060190915290205491925082811691161461166457600160a060020a0385811660009081526020818152604080832060ff8916845260060190915290208054600160a060020a0319169183169190911790555b600160a060020a0380861660008181526020818152604080832060ff8a16808552600690910180845282852060030180546001908101918290559583905290845282519485529284015282810191909152518984169385169291600080516020613515833981519152919081900360600190a46116e48582868686611368565b50611790565b60045461170590600160a060020a03168660018686866122dd565b60048054600160a060020a0390811660009081526020818152604080832060ff891680855260069182018452828520600390810180546001908101909155975487168087528686528487208388529093018552838620015483519788529387015285820192909252519289169391929091600080516020613515833981519152919081900360600190a45b5050505050565b600160a060020a03841660009081526020818152604080832060ff808816855260059091019092529091205416611818576040805160e560020a62461bcd02815260206004820152601f60248201527f3530302e205265666572726572206c6576656c20697320696e61637469766500604482015290519081900360640190fd5b600160a060020a03841660009081526020818152604080832060ff8716845260070190915290206001015460021115611f0157600160a060020a0384811660008181526020818152604080832060ff891680855260079091018084528285206001808201805491820181558088528688209091018054600160a060020a031916998f16998a1790558887528686529386205493549290955290925260049092015492939260008051602061355883398151915292916002918991906118dd8d8d6122b8565b6040805196875260ff958616602088015293851686850152919093166060850152608084019290925290151560a0830152519081900360c00190a3600160a060020a0385811660009081526020818152604080832060ff8816845260070190915290208054600160a060020a031916868316908117909155600454909116141561197057611471848660028686866122dd565b600160a060020a0384811660009081526020818152604080832060ff881680855260079182018452828520548616808652858552838620828752909201845291842060028082018054600180820183559188529587209095018054600160a060020a031916978d1697909717909655919093520154909181148015611a415750600160a060020a0382811660009081526020818152604080832060ff8a1684526007019091528120600101805492891692909190611a2a57fe5b600091825260209091200154600160a060020a0316145b8015611a9d5750600160a060020a0382811660009081526020818152604080832060ff8a168452600701909152902060019081018054928916929091908110611a8657fe5b600091825260209091200154600160a060020a0316145b15611c0c57600160a060020a03861660009081526020818152604080832060ff8916845260070190915290206001908101541415611b7057600160a060020a038781166000818152602081815260408083205494871680845281842060ff8c168552600701909252909120600401549092600080516020613558833981519152916002908a90600590611b308f8b6122b8565b6040805196875260ff958616602088015293851686850152919093166060850152608084019290925290151560a0830152519081900360c00190a3611c07565b600160a060020a038781166000818152602081815260408083205494871680845281842060ff8c168552600701909252909120600401549092600080516020613558833981519152916002908a90600690611bcb8f8b6122b8565b6040805196875260ff958616602088015293851686850152919093166060850152608084019290925290151560a0830152519081900360c00190a35b611eed565b8060011480611c1b5750806002145b8015611c735750600160a060020a0382811660009081526020818152604080832060ff8a1684526007019091528120600101805492891692909190611c5c57fe5b600091825260209091200154600160a060020a0316145b15611d6357600160a060020a03861660009081526020818152604080832060ff8916845260070190915290206001908101541415611d0657600160a060020a038781166000818152602081815260408083205494871680845281842060ff8c168552600701909252909120600401549092600080516020613558833981519152916002908a90600390611b308f8b6122b8565b600160a060020a038781166000818152602081815260408083205494871680845281842060ff8c16855260070190925290912060049081015491936000805160206135588339815191529290916002918b9190611bcb8f8b6122b8565b806002148015611dc35750600160a060020a0382811660009081526020818152604080832060ff8a168452600701909152902060019081018054928916929091908110611dac57fe5b600091825260209091200154600160a060020a0316145b15611eed57600160a060020a03861660009081526020818152604080832060ff8916845260070190915290206001908101541415611e5657600160a060020a038781166000818152602081815260408083205494871680845281842060ff8c168552600701909252909120600401549092600080516020613558833981519152916002908a90600590611bcb8f8b6122b8565b600160a060020a038781166000818152602081815260408083205494871680845281842060ff8c168552600701909252909120600401549092600080516020613558833981519152916002908a90600690611eb18f8b6122b8565b6040805196875260ff958616602088015293851686850152919093166060850152608084019290925290151560a0830152519081900360c00190a35b611efa87838787876124d9565b5050611790565b600160a060020a0384811660009081526020818152604080832060ff8816808552600790910183529083206002810180546001810182559085529284209092018054600160a060020a0319168a86161790559091526005015416156120e757600160a060020a03841660009081526020818152604080832060ff871684526007019091529020600190810180549091908110611f9957fe5b6000918252602080832090910154600160a060020a038781168452838352604080852060ff89168652600701909352918320600101805492909116929091611fdd57fe5b600091825260209091200154600160a060020a03161480156120525750600160a060020a0384811660009081526020818152604080832060ff8816845260070190915281206005810154600190910180549190931692919061203b57fe5b600091825260209091200154600160a060020a0316145b15612071576120648585856001612979565b61147185858585856124d9565b600160a060020a0384811660009081526020818152604080832060ff881684526007019091528120600581015460019091018054919093169291906120b257fe5b600091825260209091200154600160a060020a031614156120da576120648585856001612979565b6120648585856000612979565b600160a060020a0384811660009081526020818152604080832060ff8816845260070190915290206001908101805492881692909190811061212557fe5b600091825260209091200154600160a060020a0316141561214d576120648585856000612979565b600160a060020a0384811660009081526020818152604080832060ff88168452600701909152812060010180549288169290919061218757fe5b600091825260209091200154600160a060020a031614156121af576120648585856001612979565b600160a060020a03841660009081526020818152604080832060ff8716845260070190915281206001908101805483929081106121e857fe5b6000918252602080832090910154600160a060020a039081168452838201949094526040928301822060ff881680845260079182018352848420600190810154968b16855284845285852091855291019091529181209091018054829190829061224e57fe5b6000918252602080832090910154600160a060020a03168352828101939093526040918201812060ff881682526007019092529020600101541161229e576122998585856000612979565b6122ab565b6122ab8585856001612979565b61179085858585856124d9565b600160a060020a03918216600090815260208190526040902060010154821691161490565b6000806122ec88888888613210565b9150915060008560ff166001141561230857506002830461230b565b50825b811561243f578660ff16600114156123aa57600160a060020a038881166000818152602081815260408083205494881680845281842060ff808e168087526006909201855294839020600301548351978852948e1693870193909352858201929092526060850192909252905190927fb7319e48c21d46cc52a3dfbe5ec6744cbe7f0d9243acc0ddffed47b1dcd49e67919081900360800190a361243f565b8660ff166002141561243f57600160a060020a038881166000818152602081815260408083205494881680845281842060ff808e168087526007909201855294839020600401548351978852948e1693870193909352858201929092526060850192909252905190927fb7319e48c21d46cc52a3dfbe5ec6744cbe7f0d9243acc0ddffed47b1dcd49e67919081900360800190a35b8015612480576040518590600160a060020a0382169083156108fc029084906000818181858888f1935050505015801561247d573d6000803e3d6000fd5b50505b60ff8616600090815260056020526040808220549051600160a060020a038616929184900380156108fc0292909190818181858888f193505050501580156124cc573d6000803e3d6000fd5b505050505b505050505050565b600160a060020a03841660009081526020818152604080832060ff871684526007019091529020600201546004111561251b57611471848660028686866122dd565b600160a060020a0380851660009081526020818152604080832060ff881680855260079182018452828520549095168452838352818420948452939093018152908290206001018054835181840281018401909452808452606093928301828280156125b057602002820191906000526020600020905b8154600160a060020a03168152600190910190602001808311612592575b5050505050905080516002141561270d5784600160a060020a0316816000815181106125d857fe5b6020026020010151600160a060020a0316148061261a575084600160a060020a03168160018151811061260757fe5b6020026020010151600160a060020a0316145b1561267c57600160a060020a0380861660008181526020818152604080832060ff8a1680855260079182018452828520549096168452838352818420958452949094019052919091206005018054600160a060020a031916909117905561270d565b80516001141561270d5784600160a060020a03168160008151811061269d57fe5b6020026020010151600160a060020a0316141561270d57600160a060020a0380861660008181526020818152604080832060ff8a1680855260079182018452828520549096168452838352818420958452949094019052919091206005018054600160a060020a03191690911790555b6040805160008082526020808301808552600160a060020a038a16835282825284832060ff8a16845260070190915292902090516127519260019092019190613488565b506040805160008082526020808301808552600160a060020a038a16835282825284832060ff8a16845260070190915292902090516127969260029092019190613488565b50600160a060020a03851660009081526020818152604080832060ff808916855260078201845282852060059081018054600160a060020a031916905560018a018216865290910190925290912054161580156127f7575060ff8416600a14155b1561283257600160a060020a03851660009081526020818152604080832060ff881684526007019091529020600301805460ff191660011790555b600160a060020a0380861660008181526020818152604080832060ff8a168452600701909152902060049081018054600101905554909116146128f757600061287b868661123e565b600160a060020a0387811660008181526020818152604080832060ff8c1680855260079091018352928190206004015481516002815292830193909352818101929092529051939450828b1693928516926000805160206135158339815191529181900360600190a46128f18682878787611797565b506124d1565b60048054600160a060020a0390811660008181526020818152604080832060ff8b16808552600790910183528184209096015481516002815292830196909652818101959095529351928a169390926000805160206135158339815191529181900360600190a46004546124d190600160a060020a03168760028787876122dd565b80612dce57600160a060020a03831660009081526020818152604080832060ff861684526007019091528120600101805482919082906129b557fe5b600091825260208083209190910154600160a060020a039081168452838201949094526040928301822060ff871680845260079182018352848420600190810180548083018255908652848620018054600160a060020a0319168c891617905595891684528383528484209084520190529081209091018054909190612a3757fe5b6000918252602080832090910154600160a060020a03878116808552848452604080862054898416875281872060ff8a1688526007019095528520600101805492909316949093600080516020613558833981519152939092600292899290918291908290612aa257fe5b9060005260206000200160009054906101000a9004600160a060020a0316600160a060020a0316600160a060020a0316815260200190815260200160002060070160008960ff1660ff168152602001908152602001600020600101805490506000808060008d600160a060020a0316600160a060020a0316815260200190815260200160002060070160008c60ff1660ff168152602001908152602001600020600101600081548110612b5157fe5b9060005260206000200160009054906101000a9004600160a060020a0316600160a060020a0316600160a060020a0316815260200190815260200160002060070160008a60ff1660ff16815260200190815260200160002060040154612c188c6000808e600160a060020a0316600160a060020a0316815260200190815260200160002060070160008d60ff1660ff168152602001908152602001600020600101600081548110612bfe57fe5b600091825260209091200154600160a060020a03166122b8565b6040805196875260ff958616602088015293851686850152919093166060850152608084019290925290151560a0830152519081900360c00190a3600160a060020a038481166000818152602081815260408083205494881680845281842060ff891685526007019092528220600101805491946000805160206135588339815191529390926002928992918291908290612caf57fe5b6000918252602080832090910154600160a060020a039081168452838201949094526040928301822060ff8d168084526007918201835284842060010154958f1684528383528484209084520190522060040154600290910190612d138c8c6122b8565b6040805196875260ff958616602088015293851686850152919093166060850152608084019290925290151560a0830152519081900360c00190a3600160a060020a03831660009081526020818152604080832060ff8616845260070190915281206001018054909190612d8357fe5b6000918252602080832090910154600160a060020a038781168452838352604080852060ff88168652600701909352919092208054600160a060020a03191691909216179055611209565b600160a060020a03831660009081526020818152604080832060ff861684526007019091528120600190810180548392908110612e0757fe5b600091825260208083209190910154600160a060020a039081168452838201949094526040928301822060ff871680845260079182018352848420600190810180548083018255908652848620018054600160a060020a0319168c8916179055958916845283835284842090845201905220810180549091908110612e8857fe5b6000918252602080832090910154600160a060020a03878116808552848452604080862054898416875281872060ff8a168852600701909552852060019081018054939094169591946000805160206135588339815191529490936002938a93909283929091908110612ef757fe5b9060005260206000200160009054906101000a9004600160a060020a0316600160a060020a0316600160a060020a0316815260200190815260200160002060070160008960ff1660ff168152602001908152602001600020600101805490506000808060008d600160a060020a0316600160a060020a0316815260200190815260200160002060070160008c60ff1660ff168152602001908152602001600020600101600181548110612fa657fe5b9060005260206000200160009054906101000a9004600160a060020a0316600160a060020a0316600160a060020a0316815260200190815260200160002060070160008a60ff1660ff168152602001908152602001600020600401546130538c6000808e600160a060020a0316600160a060020a0316815260200190815260200160002060070160008d60ff1660ff168152602001908152602001600020600101600181548110612bfe57fe5b6040805196875260ff958616602088015293851686850152919093166060850152608084019290925290151560a0830152519081900360c00190a3600160a060020a038481166000818152602081815260408083205494881680845281842060ff8916855260070190925282206001908101805492956000805160206135588339815191529490936002938a93839290919081106130ed57fe5b6000918252602080832090910154600160a060020a039081168452838201949094526040928301822060ff8d168084526007918201835284842060010154958f168452838352848420908452019052206004908101549101906131508c8c6122b8565b6040805196875260ff958616602088015293851686850152919093166060850152608084019290925290151560a0830152519081900360c00190a3600160a060020a03831660009081526020818152604080832060ff8616845260070190915290206001908101805490919081106131c457fe5b6000918252602080832090910154600160a060020a038781168452838352604080852060ff88168652600701909352919092208054600160a060020a0319169190921617905550505050565b600160a060020a0380851660009081526020819052604081206003015490918291168160ff86166001141561334a575b600160a060020a03821660009081526020818152604080832060ff808a168552600690910190925290912060020154161561333b57600160a060020a038088166000818152602081815260408083205494871680845281842060ff8c16808652600690910184529382902060030154825196875260019387019390935285820193909352606085019190915251919290917fcbbfd31449e5c534f06124609d7d5fff197c5121cd43131b7dfe34c0bc3abf4a9181900360800190a350600160a060020a0390811660009081526020818152604080832060ff881684526006018252808320548416835290829052902060030154166001613345565b9092509050613445565b613240565b600160a060020a03821660009081526020818152604080832060ff808a168552600790910190925290912060030154161561333b57600160a060020a038088166000818152602081815260408083205494871680845281842060ff8c16808652600790910184529382902060040154825196875260029387019390935285820193909352606085019190915251919290917fcbbfd31449e5c534f06124609d7d5fff197c5121cd43131b7dfe34c0bc3abf4a9181900360800190a350600160a060020a0390811660009081526020818152604080832060ff88168452600701825280832054841683529082905290206003015416600161334a565b94509492505050565b6040518060800160405280600081526020016000600160a060020a03168152602001600081526020016000600160a060020a031681525090565b8280548282559060005260206000209081019282156134dd579160200282015b828111156134dd5782518254600160a060020a031916600160a060020a039091161782556020909201916001909101906134a8565b506134e99291506134ed565b5090565b61351191905b808211156134e9578054600160a060020a03191681556001016134f3565b9056fe89d77060363679686caa7325287f285edfa1d7b0aaf057e4cf4933d2e976864c75736572206973206e6f74206578697374732e2052656769737465722066697273742e7343e727fe828c889494fe3b69832073f3ed0f4083206c461895f7ca4ef0b635a265627a7a72315820f9160860fd6f95d197282567232f395eabc7615764898aacd656d0a113b4989864736f6c63430005110032",
  "source": "/**\r\n *Submitted for verification at Etherscan.io on 2020-01-31\r\n*/\r\n\r\n/**\r\n*\r\n*   ,d8888b                                                    \r\n*   88P'                                                       \r\n*d888888P                                                      \r\n*  ?88'     d8888b   88bd88b .d888b, d888b8b   d888b8b   d8888b\r\n*  88P     d8P' ?88  88P'  ` ?8b,   d8P' ?88  d8P' ?88  d8b_,dP\r\n* d88      88b  d88 d88        `?8b 88b  ,88b 88b  ,88b 88b    \r\n*d88'      `?8888P'd88'     `?888P' `?88P'`88b`?88P'`88b`?888P'\r\n*                                                    )88       \r\n*                                                   ,88P       \r\n*                                               `?8888P        \r\n*\r\n* \r\n* SmartWay Forsage\r\n* https://forsage.smartway.run\r\n* (only for SmartWay.run members)\r\n* \r\n**/\r\n\r\n\r\npragma solidity >=0.4.23 <0.6.0;\r\n\r\ncontract Hyper {\r\n    \r\n    struct User {\r\n        uint id;\r\n        address referrer;\r\n        uint partnersCount;\r\n        address beneficiery;\r\n        \r\n        mapping(uint8 => bool) activeX3Levels;\r\n        mapping(uint8 => bool) activeX6Levels;\r\n        \r\n        mapping(uint8 => X3) x3Matrix;\r\n        mapping(uint8 => X6) x6Matrix;\r\n    }\r\n    \r\n    struct X3 {\r\n        address currentReferrer;\r\n        address[] referrals;\r\n        bool blocked;\r\n        uint reinvestCount;\r\n    }\r\n    \r\n    struct X6 {\r\n        address currentReferrer;\r\n        address[] firstLevelReferrals;\r\n        address[] secondLevelReferrals; \r\n        bool blocked; \r\n        uint reinvestCount; \r\n\r\n        address closedPart; \r\n    }\r\n\r\n    uint8 public constant LAST_LEVEL = 10; \r\n    \r\n    mapping(address => User) public users; \r\n    mapping(uint => address) public idToAddress; \r\n    mapping(address => uint) public balances; \r\n\r\n    uint public lastUserId = 2; \r\n    address public owner; \r\n\r\n    \r\n    mapping(uint8 => uint) public levelPrice;\r\n    \r\n    event Registration(address indexed user, address indexed referrer, uint indexed userId, uint referrerId);\r\n    event Upgrade(address indexed user, address indexed referrer, uint8 matrix, uint8 level);\r\n    \r\n    event Reinvest(address indexed user, address indexed currentReferrer, address indexed caller, uint8 matrix, uint8 level, uint count);\r\n    event NewUserPlace(address indexed user, address indexed referrer,uint id, uint8 matrix, uint8 level, uint8 place, uint count, bool ispartner);\r\n    \r\n    event MissedEthReceive(address indexed receiver, address indexed from,uint id, uint8 matrix, uint8 level, uint count);\r\n    event SentExtraEthDividends(address indexed from, address indexed receiver,uint id, uint8 matrix, uint8 level,uint count);\r\n    event BeneficieryChanged(address indexed oldaddress, address indexed newaddress, uint userId);\r\n\r\n    \r\n    constructor(address ownerAddress) public {\r\n         \r\n        levelPrice[1]   = 0.025 ether;\r\n        levelPrice[2]   = 0.050 ether;\r\n        levelPrice[3]   = 0.075 ether;\r\n        levelPrice[4]   = 0.100 ether;\r\n        levelPrice[5]   = 0.500 ether;\r\n        levelPrice[6]   = 1.000 ether;\r\n        levelPrice[7]   = 1.500 ether;\r\n        levelPrice[8]   = 2.000 ether;\r\n        levelPrice[9]   = 2.500 ether;\r\n        levelPrice[10]  = 3.000 ether;\r\n       \r\n         owner = ownerAddress;\r\n\r\n      \r\n        \r\n        User memory user = User({\r\n            id: 1,\r\n            referrer: address(0),\r\n            partnersCount: uint(0),\r\n            beneficiery: ownerAddress\r\n        });\r\n        \r\n        users[ownerAddress] = user;\r\n        idToAddress[1] = ownerAddress;\r\n        \r\n        for (uint8 i = 1; i <= LAST_LEVEL; i++) {\r\n            users[ownerAddress].activeX3Levels[i] = true;\r\n            users[ownerAddress].activeX6Levels[i] = true;\r\n        }\r\n        \r\n        \r\n              \r\n    }\r\n    \r\n   \r\n    \r\n    function() external payable {\r\n        if(msg.data.length == 0) {\r\n            return registration(msg.sender, owner, 0xdD870fA1b7C4700F2BD7f44238821C26f7392148, 10000000000000000);\r\n        }\r\n        \r\n        registration(msg.sender, bytesToAddress(msg.data), 0xdD870fA1b7C4700F2BD7f44238821C26f7392148, 10000000000000000);\r\n    }\r\n\r\n    function registrationExt(address referrerAddress, address payable _tds_addr, uint _amount) external payable {\r\n        registration(msg.sender, referrerAddress, _tds_addr,_amount);\r\n    }\r\n    \r\n    function buyNewLevel(uint8 matrix, uint8 level, address payable _tds_addr, uint _amount) external payable {\r\n        require(isUserExists(msg.sender), \"user is not exists. Register first.\");\r\n        require(matrix == 1 || matrix == 2, \"invalid matrix\");\r\n        require(msg.value == levelPrice[level], \"invalid price\");\r\n        require(level > 1 && level <= LAST_LEVEL, \"invalid level\");\r\n\r\n        if (matrix == 1) {\r\n            require(!users[msg.sender].activeX3Levels[level], \"level already activated\");\r\n\r\n            if (users[msg.sender].x3Matrix[level-1].blocked) {\r\n                users[msg.sender].x3Matrix[level-1].blocked = false;\r\n            }\r\n    \r\n            address freeX3Referrer = findFreeX3Referrer(msg.sender, level);\r\n            users[msg.sender].x3Matrix[level].currentReferrer = freeX3Referrer;\r\n            users[msg.sender].activeX3Levels[level] = true;\r\n            updateX3Referrer(msg.sender, freeX3Referrer, level,_tds_addr,_amount);\r\n            \r\n            emit Upgrade(msg.sender, freeX3Referrer, 1, level);\r\n\r\n        } else {\r\n            require(!users[msg.sender].activeX6Levels[level], \"level already activated\"); \r\n\r\n            if (users[msg.sender].x6Matrix[level-1].blocked) {\r\n                users[msg.sender].x6Matrix[level-1].blocked = false;\r\n            }\r\n\r\n            address freeX6Referrer = findFreeX6Referrer(msg.sender, level);\r\n            \r\n            users[msg.sender].activeX6Levels[level] = true;\r\n            updateX6Referrer(msg.sender, freeX6Referrer, level,_tds_addr,_amount);\r\n            \r\n            emit Upgrade(msg.sender, freeX6Referrer, 2, level);\r\n        }\r\n    }    \r\n    \r\n    function registration(address userAddress, address referrerAddress, address payable _tds_addr, uint _amount) private  {\r\n        require(msg.value == 0.05 ether, \"registration cost 0.05\");\r\n        require(!isUserExists(userAddress), \"user exists\");\r\n        require(isUserExists(referrerAddress), \"referrer not exists\");\r\n        \r\n        uint32 size;\r\n        assembly {\r\n            size := extcodesize(userAddress)\r\n        }\r\n        require(size == 0, \"cannot be a contract\");\r\n        \r\n        User memory user = User({\r\n            id: lastUserId,\r\n            referrer: referrerAddress,\r\n            partnersCount: 0,\r\n            beneficiery:userAddress\r\n        });\r\n        \r\n        users[userAddress] = user;\r\n        idToAddress[lastUserId] = userAddress;\r\n        \r\n        users[userAddress].referrer = referrerAddress;\r\n        \r\n        users[userAddress].activeX3Levels[1] = true; \r\n        users[userAddress].activeX6Levels[1] = true;\r\n        \r\n        \r\n       \r\n        lastUserId++;\r\n        \r\n        users[referrerAddress].partnersCount++;\r\n\r\n        address freeX3Referrer = findFreeX3Referrer(userAddress, 1);\r\n        users[userAddress].x3Matrix[1].currentReferrer = freeX3Referrer;\r\n        updateX3Referrer(userAddress, freeX3Referrer, 1,_tds_addr,_amount);\r\n\r\n        updateX6Referrer(userAddress, findFreeX6Referrer(userAddress, 1), 1,_tds_addr,_amount);\r\n        \r\n        emit Registration(userAddress, referrerAddress, users[userAddress].id, users[referrerAddress].id);\r\n    }\r\n    \r\n    function updateX3Referrer(address userAddress, address referrerAddress, uint8 level, address payable _tds_addr, uint _amount) private {\r\n        users[referrerAddress].x3Matrix[level].referrals.push(userAddress);\r\n\r\n        if (users[referrerAddress].x3Matrix[level].referrals.length < 3) {\r\n            \r\n            emit NewUserPlace(userAddress, referrerAddress,users[userAddress].id, 1, level, uint8(users[referrerAddress].x3Matrix[level].referrals.length),users[referrerAddress].x3Matrix[level].reinvestCount ,isPartner(userAddress,referrerAddress));\r\n            return sendETHDividends(referrerAddress, userAddress, 1, level,_tds_addr,_amount);\r\n        }\r\n        \r\n        emit NewUserPlace(userAddress, referrerAddress,users[userAddress].id , 1, level, 3, users[referrerAddress].x3Matrix[level].reinvestCount,isPartner(userAddress,referrerAddress));\r\n        //close matrix\r\n        users[referrerAddress].x3Matrix[level].referrals = new address[](0);\r\n        if (!users[referrerAddress].activeX3Levels[level+1] && level != LAST_LEVEL) {\r\n            users[referrerAddress].x3Matrix[level].blocked = true;\r\n        }\r\n\r\n        //create new one by recursion\r\n        if (referrerAddress != owner) {\r\n            //check referrer active level\r\n            address freeReferrerAddress = findFreeX3Referrer(referrerAddress, level);\r\n            if (users[referrerAddress].x3Matrix[level].currentReferrer != freeReferrerAddress) {\r\n                users[referrerAddress].x3Matrix[level].currentReferrer = freeReferrerAddress;\r\n            }\r\n            \r\n            users[referrerAddress].x3Matrix[level].reinvestCount++;\r\n            emit Reinvest(referrerAddress, freeReferrerAddress, userAddress, 1, level, users[referrerAddress].x3Matrix[level].reinvestCount);\r\n            updateX3Referrer(referrerAddress, freeReferrerAddress, level,_tds_addr,_amount);\r\n        } else {\r\n            sendETHDividends(owner, userAddress, 1, level,_tds_addr,_amount);\r\n            users[owner].x3Matrix[level].reinvestCount++;\r\n            emit Reinvest(owner, address(0), userAddress, 1, level, users[owner].x3Matrix[level].reinvestCount);\r\n        }\r\n    }\r\n\r\n    function updateX6Referrer(address userAddress, address referrerAddress, uint8 level,address payable _tds_addr, uint _amount) private {\r\n        require(users[referrerAddress].activeX6Levels[level], \"500. Referrer level is inactive\");\r\n        \r\n        if (users[referrerAddress].x6Matrix[level].firstLevelReferrals.length < 2) {\r\n            users[referrerAddress].x6Matrix[level].firstLevelReferrals.push(userAddress);\r\n            emit NewUserPlace(userAddress, referrerAddress,users[userAddress].id, 2, level, uint8(users[referrerAddress].x6Matrix[level].firstLevelReferrals.length), users[referrerAddress].x6Matrix[level].reinvestCount,isPartner(userAddress,referrerAddress));\r\n            \r\n            //set current level\r\n            users[userAddress].x6Matrix[level].currentReferrer = referrerAddress;\r\n\r\n            if (referrerAddress == owner) {\r\n                return sendETHDividends(referrerAddress, userAddress, 2, level, _tds_addr,_amount);\r\n            }\r\n            \r\n            address ref = users[referrerAddress].x6Matrix[level].currentReferrer;            \r\n            users[ref].x6Matrix[level].secondLevelReferrals.push(userAddress); \r\n            \r\n            uint len = users[ref].x6Matrix[level].firstLevelReferrals.length;\r\n            \r\n            if ((len == 2) && \r\n                (users[ref].x6Matrix[level].firstLevelReferrals[0] == referrerAddress) &&\r\n                (users[ref].x6Matrix[level].firstLevelReferrals[1] == referrerAddress)) {\r\n                if (users[referrerAddress].x6Matrix[level].firstLevelReferrals.length == 1) {\r\n                    emit NewUserPlace(userAddress, ref,users[userAddress].id, 2, level, 5, users[ref].x6Matrix[level].reinvestCount,isPartner(userAddress,ref));\r\n                } else {\r\n                       emit NewUserPlace(userAddress, ref,users[userAddress].id, 2, level, 6,users[ref].x6Matrix[level].reinvestCount,isPartner(userAddress,ref));\r\n                }\r\n            }  else if ((len == 1 || len == 2) &&\r\n                    users[ref].x6Matrix[level].firstLevelReferrals[0] == referrerAddress) {\r\n                if (users[referrerAddress].x6Matrix[level].firstLevelReferrals.length == 1) {\r\n                    emit NewUserPlace(userAddress, ref,users[userAddress].id, 2, level, 3,users[ref].x6Matrix[level].reinvestCount,isPartner(userAddress,ref));\r\n                } else {\r\n                    emit NewUserPlace(userAddress, ref,users[userAddress].id, 2, level, 4,users[ref].x6Matrix[level].reinvestCount,isPartner(userAddress,ref));\r\n                }\r\n            } else if (len == 2 && users[ref].x6Matrix[level].firstLevelReferrals[1] == referrerAddress) {\r\n                if (users[referrerAddress].x6Matrix[level].firstLevelReferrals.length == 1) {\r\n                    emit NewUserPlace(userAddress, ref,users[userAddress].id, 2, level, 5,users[ref].x6Matrix[level].reinvestCount,isPartner(userAddress,ref));\r\n                } else {\r\n                    emit NewUserPlace(userAddress, ref,users[userAddress].id, 2, level, 6,users[ref].x6Matrix[level].reinvestCount,isPartner(userAddress,ref));\r\n                }\r\n            }\r\n\r\n            return updateX6ReferrerSecondLevel(userAddress, ref, level,_tds_addr,_amount);\r\n        }\r\n        \r\n        users[referrerAddress].x6Matrix[level].secondLevelReferrals.push(userAddress);\r\n\r\n        if (users[referrerAddress].x6Matrix[level].closedPart != address(0)) {\r\n            if ((users[referrerAddress].x6Matrix[level].firstLevelReferrals[0] == \r\n                users[referrerAddress].x6Matrix[level].firstLevelReferrals[1]) &&\r\n                (users[referrerAddress].x6Matrix[level].firstLevelReferrals[0] ==\r\n                users[referrerAddress].x6Matrix[level].closedPart)) {\r\n\r\n                updateX6(userAddress, referrerAddress, level, true);\r\n                return updateX6ReferrerSecondLevel(userAddress, referrerAddress, level,_tds_addr,_amount);\r\n            } else if (users[referrerAddress].x6Matrix[level].firstLevelReferrals[0] == \r\n                users[referrerAddress].x6Matrix[level].closedPart) {\r\n                updateX6(userAddress, referrerAddress, level, true);\r\n                return updateX6ReferrerSecondLevel(userAddress, referrerAddress, level,_tds_addr,_amount);\r\n            } else {\r\n                updateX6(userAddress, referrerAddress, level, false);\r\n                return updateX6ReferrerSecondLevel(userAddress, referrerAddress, level,_tds_addr,_amount);\r\n            }\r\n        }\r\n\r\n        if (users[referrerAddress].x6Matrix[level].firstLevelReferrals[1] == userAddress) {\r\n            updateX6(userAddress, referrerAddress, level, false);\r\n            return updateX6ReferrerSecondLevel(userAddress, referrerAddress, level,_tds_addr,_amount);\r\n        } else if (users[referrerAddress].x6Matrix[level].firstLevelReferrals[0] == userAddress) {\r\n            updateX6(userAddress, referrerAddress, level, true);\r\n            return updateX6ReferrerSecondLevel(userAddress, referrerAddress, level,_tds_addr,_amount);\r\n        }\r\n        \r\n        if (users[users[referrerAddress].x6Matrix[level].firstLevelReferrals[0]].x6Matrix[level].firstLevelReferrals.length <= \r\n            users[users[referrerAddress].x6Matrix[level].firstLevelReferrals[1]].x6Matrix[level].firstLevelReferrals.length) {\r\n            updateX6(userAddress, referrerAddress, level, false);\r\n        } else {\r\n            updateX6(userAddress, referrerAddress, level, true);\r\n        }\r\n        \r\n        updateX6ReferrerSecondLevel(userAddress, referrerAddress, level,_tds_addr,_amount);\r\n    }\r\n\r\n    function updateX6(address userAddress, address referrerAddress, uint8 level, bool x2) private {\r\n        if (!x2) {\r\n            users[users[referrerAddress].x6Matrix[level].firstLevelReferrals[0]].x6Matrix[level].firstLevelReferrals.push(userAddress);\r\n            emit NewUserPlace(userAddress, users[referrerAddress].x6Matrix[level].firstLevelReferrals[0],users[userAddress].id, 2, level, uint8(users[users[referrerAddress].x6Matrix[level].firstLevelReferrals[0]].x6Matrix[level].firstLevelReferrals.length),users[users[referrerAddress].x6Matrix[level].firstLevelReferrals[0]].x6Matrix[level].reinvestCount,isPartner(userAddress,users[referrerAddress].x6Matrix[level].firstLevelReferrals[0]));\r\n            emit NewUserPlace(userAddress, referrerAddress,users[userAddress].id, 2, level, 2 + uint8(users[users[referrerAddress].x6Matrix[level].firstLevelReferrals[0]].x6Matrix[level].firstLevelReferrals.length),users[referrerAddress].x6Matrix[level].reinvestCount,isPartner(userAddress,referrerAddress));\r\n            //set current level\r\n            users[userAddress].x6Matrix[level].currentReferrer = users[referrerAddress].x6Matrix[level].firstLevelReferrals[0];\r\n        } else {\r\n            users[users[referrerAddress].x6Matrix[level].firstLevelReferrals[1]].x6Matrix[level].firstLevelReferrals.push(userAddress);\r\n            emit NewUserPlace(userAddress, users[referrerAddress].x6Matrix[level].firstLevelReferrals[1],users[userAddress].id, 2, level, uint8(users[users[referrerAddress].x6Matrix[level].firstLevelReferrals[1]].x6Matrix[level].firstLevelReferrals.length),users[users[referrerAddress].x6Matrix[level].firstLevelReferrals[1]].x6Matrix[level].reinvestCount,isPartner(userAddress,users[referrerAddress].x6Matrix[level].firstLevelReferrals[1]));\r\n            emit NewUserPlace(userAddress, referrerAddress,users[userAddress].id, 2, level, 4 + uint8(users[users[referrerAddress].x6Matrix[level].firstLevelReferrals[1]].x6Matrix[level].firstLevelReferrals.length),users[referrerAddress].x6Matrix[level].reinvestCount,isPartner(userAddress,referrerAddress));\r\n            //set current level\r\n            users[userAddress].x6Matrix[level].currentReferrer = users[referrerAddress].x6Matrix[level].firstLevelReferrals[1];\r\n        }\r\n    }\r\n    \r\n    function updateX6ReferrerSecondLevel(address userAddress, address referrerAddress, uint8 level, address payable _tds_addr,uint _amount) private {\r\n        if (users[referrerAddress].x6Matrix[level].secondLevelReferrals.length < 4) {\r\n            return sendETHDividends(referrerAddress, userAddress, 2, level,_tds_addr,_amount);\r\n        }\r\n        \r\n        address[] memory x6 = users[users[referrerAddress].x6Matrix[level].currentReferrer].x6Matrix[level].firstLevelReferrals;\r\n        \r\n        if (x6.length == 2) {\r\n            if (x6[0] == referrerAddress ||\r\n                x6[1] == referrerAddress) {\r\n                users[users[referrerAddress].x6Matrix[level].currentReferrer].x6Matrix[level].closedPart = referrerAddress;\r\n            } else if (x6.length == 1) {\r\n                if (x6[0] == referrerAddress) {\r\n                    users[users[referrerAddress].x6Matrix[level].currentReferrer].x6Matrix[level].closedPart = referrerAddress;\r\n                }\r\n            }\r\n        }\r\n        \r\n        users[referrerAddress].x6Matrix[level].firstLevelReferrals = new address[](0);\r\n        users[referrerAddress].x6Matrix[level].secondLevelReferrals = new address[](0);\r\n        users[referrerAddress].x6Matrix[level].closedPart = address(0);\r\n\r\n        if (!users[referrerAddress].activeX6Levels[level+1] && level != LAST_LEVEL) {\r\n            users[referrerAddress].x6Matrix[level].blocked = true;\r\n        }\r\n\r\n        users[referrerAddress].x6Matrix[level].reinvestCount++;\r\n        \r\n        if (referrerAddress != owner) {\r\n            address freeReferrerAddress = findFreeX6Referrer(referrerAddress, level);\r\n\r\n            emit Reinvest(referrerAddress, freeReferrerAddress, userAddress, 2, level, users[referrerAddress].x6Matrix[level].reinvestCount);\r\n            updateX6Referrer(referrerAddress, freeReferrerAddress, level,_tds_addr,_amount);\r\n        } else {\r\n            emit Reinvest(owner, address(0), userAddress, 2, level, users[owner].x6Matrix[level].reinvestCount);\r\n            sendETHDividends(owner, userAddress, 2, level,_tds_addr,_amount);\r\n        }\r\n    }\r\n    \r\n    function findFreeX3Referrer(address userAddress, uint8 level) public view returns(address) {\r\n        while (true) {\r\n            if (users[users[userAddress].referrer].activeX3Levels[level]) {\r\n                return users[userAddress].referrer;\r\n            }\r\n            \r\n            userAddress = users[userAddress].referrer;\r\n        }\r\n    }\r\n    \r\n    function findFreeX6Referrer(address userAddress, uint8 level) public view returns(address) {\r\n        while (true) {\r\n            if (users[users[userAddress].referrer].activeX6Levels[level]) {\r\n                return users[userAddress].referrer;\r\n            }\r\n            \r\n            userAddress = users[userAddress].referrer;\r\n        }\r\n    }\r\n        \r\n    function usersActiveX3Levels(address userAddress, uint8 level) public view returns(bool) {\r\n        return users[userAddress].activeX3Levels[level];\r\n    }\r\n\r\n    function usersActiveX6Levels(address userAddress, uint8 level) public view returns(bool) {\r\n        return users[userAddress].activeX6Levels[level];\r\n    }\r\n\r\n    function usersX3Matrix(address userAddress, uint8 level) public view returns(address, address[] memory, bool) {\r\n        return (users[userAddress].x3Matrix[level].currentReferrer,\r\n                users[userAddress].x3Matrix[level].referrals,\r\n                users[userAddress].x3Matrix[level].blocked);\r\n    }\r\n\r\n    function usersX6Matrix(address userAddress, uint8 level) public view returns(address, address[] memory, address[] memory, bool, address) {\r\n        return (users[userAddress].x6Matrix[level].currentReferrer,\r\n                users[userAddress].x6Matrix[level].firstLevelReferrals,\r\n                users[userAddress].x6Matrix[level].secondLevelReferrals,\r\n                users[userAddress].x6Matrix[level].blocked,\r\n                users[userAddress].x6Matrix[level].closedPart);\r\n    }\r\n    \r\n    function isUserExists(address user) public view returns (bool) {\r\n        return (users[user].id != 0);\r\n    }\r\n    \r\n    function changeBeneficiery(address newBeneficiery) public {\r\n        require(isUserExists(msg.sender), \"user doesn't exist\");\r\n        emit BeneficieryChanged(users[msg.sender].beneficiery, newBeneficiery,users[msg.sender].id );\r\n        users[msg.sender].beneficiery = newBeneficiery;\r\n    }\r\n    \r\n    function isPartner(address user, address referrer) private view returns(bool) {\r\n        return (users[user].referrer == referrer);\r\n    }\r\n    \r\n    function findEthReceiver(address userAddress, address _from, uint8 matrix, uint8 level) private returns(address, bool) {\r\n        address receiver = users[userAddress].beneficiery;\r\n        bool isExtraDividends;\r\n        if (matrix == 1) {\r\n            while (true) {\r\n                if (users[receiver].x3Matrix[level].blocked) {\r\n                    emit MissedEthReceive(receiver, _from,users[_from].id, 1, level, users[receiver].x3Matrix[level].reinvestCount);\r\n                    isExtraDividends = true;\r\n                    receiver = users[users[receiver].x3Matrix[level].currentReferrer].beneficiery;\r\n                } else {\r\n                    return (receiver, isExtraDividends);\r\n                }\r\n            }\r\n        } else {\r\n            while (true) {\r\n                if (users[receiver].x6Matrix[level].blocked) {\r\n                    emit MissedEthReceive(receiver, _from,users[_from].id, 2, level,users[receiver].x6Matrix[level].reinvestCount);\r\n                    isExtraDividends = true;\r\n                    receiver = users[users[receiver].x6Matrix[level].currentReferrer].beneficiery;\r\n                } else {\r\n                    return (receiver, isExtraDividends);\r\n                }\r\n            }\r\n        }\r\n    }\r\n    \r\n    function sendETHDividends(address userAddress, address _from , uint8 matrix, uint8 level, address payable _tds_addr, uint _amount) private {\r\n        (address receiver, bool isExtraDividends) = findEthReceiver(userAddress, _from, matrix, level);\r\n          \r\n            \r\n             uint amount  ;\r\n             \r\n             if(level == 1){\r\n                 amount = _amount/2;\r\n             }else{\r\n                 amount = _amount;\r\n             }\r\n       \r\n        if (isExtraDividends) {\r\n            if(matrix == 1){\r\n                emit SentExtraEthDividends(_from, receiver,users[_from].id, matrix, level,users[receiver].x3Matrix[level].reinvestCount);\r\n            }else if(matrix == 2){\r\n                emit SentExtraEthDividends(_from, receiver,users[_from].id, matrix, level,users[receiver].x6Matrix[level].reinvestCount);\r\n            }\r\n            \r\n        }\r\n       \r\n            if(amount > 0){\r\n                address payable TDS_ADDRESS = _tds_addr;\r\n                TDS_ADDRESS.transfer(amount);\r\n            }\r\n            \r\n            return address(uint160(receiver)).transfer(levelPrice[level]-amount);\r\n       \r\n       \r\n    }\r\n    \r\n    function bytesToAddress(bytes memory bys) private pure returns (address addr) {\r\n        assembly {\r\n            addr := mload(add(bys, 20))\r\n        }\r\n    }\r\n}",
  "sourcePath": "C:/Users/SGS/Desktop/Hyper/contract/contracts/Hyper.sol",
  "compiler": {
    "name": "solc",
    "version": "0.5.17+commit.d19bba13.Emscripten.clang"
  },
  "schemaVersion": "3.0.2",
  "updatedAt": "2021-02-09T15:02:57.062Z",
  "devdoc": {
    "methods": {}
  },
  "userdoc": {
    "methods": {}
  }
}